:020000040000FA
:10000000280E00206D020000810200008302000023
:10001000850200008502000085020000000000004B
:100020000000000000000000000000008502000049
:10003000850200000000000085020000050A0000A3
:100040008502000085020000850200008502000094
:100050008502000085020000850200008502000084
:100060008502000085020000850200008502000074
:10007000850200008502000085020000790300006F
:100080008502000085020000C90C00008502000006
:100090008502000085020000850200008502000044
:1000A0008502000085020000850200008502000034
:1000B0008502000085020000850200008502000024
:1000C0008502000085020000850200008502000014
:1000D0008502000085020000850200008502000004
:1000E0008502000000000000000000008502000002
:1000F00085020000850200008502000085020000E4
:1001000085020000850200008502000085020000D3
:1001100000000000000000008502000085020000D1
:1001200085020000850200008502000085020000B3
:10013000650B0000850200008502000085020000BA
:1001400000000000000000000000000000000000AF
:100150008502000085020000850200008502000083
:10016000000000000000000000000000000000008F
:10017000000000000000000000000000000000007F
:10018000000000000000000000000000000000006F
:10019000000000000000000000000000000000005F
:1001A000000000000000000000000000000000004F
:1001B0008502000085020000850200008502000023
:1001C0008502000085020000850200008502000013
:1001D0008502000085020000850200008502000003
:1001E000850200008502000085020000000000007A
:1001F000000000008502000085020000850200006A
:1002000085020000850200000000000000000000E0
:1002100085020000850200008502000085020000C2
:1002200085020000850200008502000085020000B2
:1002300085020000850200008502000085020000A2
:100240008502000085020000850200008502000092
:100250008502000085020000850200008502000082
:100260008502000085020000850200004EF68850DD
:10027000CEF20000016841F47001016000F004B8A2
:10028000FEE7FEE7FEE7000000F002F800F04CF8A1
:100290000AA090E8000C82448344AAF10107DA45E1
:1002A00001D100F041F8AFF2090EBAE80F0013F0E7
:1002B000010F18BFFB1A43F0010318475023000039
:1002C000702300000A4410F8014B14F00F0508BF1A
:1002D00010F8015B240908BF10F8014B6D1E05D012
:1002E00010F8013B6D1E01F8013BF9D1641E03D0EB
:1002F000641E01F8015BFBD19142E4D3704700001A
:100300000023002400250026103A28BF78C1FBD81E
:10031000520728BF30C148BF0B6070471FB501F0BE
:10032000ABFE1FBD10B510BD00F083FD1146FFF7F9
:10033000F5FF00F05CFD00F0A1FD03B4FFF7F2FF54
:1003400003BC00F0A5FD00000138FDD1704700009E
:10035000EFF3108072B67047EFF310807047EFF341
:10036000108062B6704730BF704780F311887047C5
:10037000EFF31180704700002DE9F0432DED028B63
:1003800081B09FED728BDFF8CC91D9F80000002886
:100390007ED1714E0321304600F081FD03213046AD
:1003A00000F0E0FD00220321304600F0C1FD0028EE
:1003B000F8D06A460321304600F017FE009801F09D
:1003C000EEFB9FED661B53EC112B01F037FC664CE6
:1003D000644D227805EBC202C2E9000103213046D8
:1003E00000F062FD20784FF00008401CC0B2207081
:1003F00005F5487764282FD1002605EBC60090ED5F
:10040000000B51EC180B53EC102B01F08FF9761CFC
:1004100041EC180BF6B2642EEFD39FED540B51EC68
:10042000180B53EC102B01F035FA9FED521B53ECD7
:10043000112B01F02FFA9FED511B53EC112B01F002
:10044000FDFBC4E90201627807EBC203521CC3E959
:100450000001627084F800806078052828D197EC4C
:10046000040B51EC100B53EC112B01F05FF997EDDD
:10047000041B53EC112B01F059F997ED061B53ECBB
:10048000112B01F053F997ED081B53EC112B00E0F1
:1004900011E001F04BF99FED3B1B53EC112B01F0E8
:1004A000F9F9C4E9040139490120087084F8018090
:1004B0000A21C9F8001001B0BDEC028BBDE8F08341
:1004C00010B5334801F09EF80A20FFF73DFF314890
:1004D00001F098F80A20FFF737FF01212E4800F0BD
:1004E000C8FE1D4C0121204600F049FD0321204695
:1004F00000F08DFD00231A460321204600F045FD43
:10050000632300220321204600F090FDAFF29712F2
:100510000321204600F0D8FC0321204600F0CCFC4B
:100520002046BDE81040032100F079BD10B50A4C0B
:100530000321204600F0C0FC0520FFF705FF204600
:10054000BDE81040032100F00DBD000000000000D8
:10055000000000004800002000800340E10AAF9442
:10056000818A4A3F70060020000000200000000041
:1005700000005940CDCCCCCCCCCC1240CDCCCCCC96
:10058000CCAC5840000000000000144031000020B6
:10059000040800F0003800F000400240002100E0B4
:1005A000491C8142FCD3704770B5704E054600244B
:1005B00005FA04F0000601D5082200E00022082117
:1005C000304600F08EFE0A20FFF7E8FF01221146B8
:1005D000304600F086FE0A20FFF7E0FF00220121EE
:1005E000304600F07EFE0A20FFF7D8FF641CE4B21C
:1005F000082CDDD370BD2DE9F84F9FED5D0B5E48F3
:1006000053EC102B90ED000B51EC100B01F016FB8E
:100610008346009101F096FA80B24FF47A73574CFA
:10062000984204D24020E070A070607041E0B0FBBE
:10063000F3F2524E12F0FF014FF0000806F10406EB
:100640000BD0715CE17003FB12074FF0640AB7FB3B
:10065000FAF919F0FF0504D006E0414684F803805A
:10066000F1E711F0FF0F18D0009941EC10BB9FED9E
:10067000441B51EC100B53EC112B01F0A3FA705DED
:1006800001D240F08000A0700AFB19700A23B0FB71
:10069000F3F212F0FF0103D006E084F80280F3E7E2
:1006A000E5780DB9A5783DB1715C617003FB12006E
:1006B000305C2070BDE8F88F84F80180F6E770B5F3
:1006C000FFF799FF2D48441E2178405CFFF76CFF2F
:1006D0004FF0402500220821284600F002FE0022AB
:1006E0000421284600F0FDFD00220221284600F0EA
:1006F000F8FD00220121284600F0F3FD1B4E0222E6
:100700001146304600F0EDFD0A20FFF747FF0022BA
:100710000221304600F0E5FD217869B101290ED0B3
:10072000022914D0032906D101221146284600F0DF
:10073000D8FD0020207070BD0822114601E004227F
:100740001146284600F0CDFD2078401CF2E7022239
:100750001146F6E7002240F2E24304E00021491C82
:100760009942FCD3521C8242F8D37047007000407B
:100770000000000000005940100000201900002077
:10078000000000000088C34070B50F218F4800F0C2
:100790006DFD904E8E4C0002357800F4706044F888
:1007A0002500216801200A4654F82030401C1943D6
:1007B0001A40C0B20428F7D3B08A6D1CC04300F4BD
:1007C000706008401043C04300F470607061E8B28C
:1007D0003070042801D30020307070BD2DE9F0473F
:1007E0007C4F7D4C4FF000082DED028B4FF04020E8
:1007F000B978002969D0F968002966D001213971DA
:100800008022114600F06DFD744D754E687920F020
:100810000100687178799FED738B002851D094EDB9
:10082000000B53EC182B51EC100B01F0CBF90DD24F
:1008300000220221304600F054FD042211463046C9
:1008400000F04FFD687940F0020037E094ED000BB6
:1008500053EC182BA14651EC100B01F0EDFA01D826
:10086000012400E000249FED610B53EC102B99ED67
:10087000000B51EC100B01F0A5F901D2012000E0B2
:10088000002004420DD000220421304600F029FD52
:1008900002221146304600F024FD687940F0040041
:1008A0000CE004221146304600F01BFD02221146E6
:1008B000304600F016FD687920F00600687187F870
:1008C0000580BDEC028BBDE8F08787F8048087F8CF
:1008D00005809FED480B002284ED000B8021BDECCC
:1008E000028BBDE8F04700F0FCBC70B5FFF7E7FEF7
:1008F000384C207918B1E06908B9FFF717FEA068F5
:1009000050B9FFF741FFFFF769FFD4E905018842BD
:1009100000D0A0611920A060384A1078962854D1E0
:100920005078012851D1907804284ED100210846F2
:10093000135C401C1944C0B2C9B20728F8D3D3795C
:10094000012000258B420ED1517901290AD1A18ABB
:10095000C90507D5A070E070617821B92849E16028
:10096000607000E0A5701D4B88211970042159703A
:100970009870DD701D719D71E068002141F288362C
:10098000B04207D2E068B0F57A7F03D9587940F0D9
:100990000100587100201E5C401C3144C0B2C9B235
:1009A0000728F8D3D971E068012801D16570557125
:1009B0002069002809D1E078002806D0082000F03E
:1009C00043F9E5704FF4FA70206170BD00500240A9
:1009D000B80900202C000020100000205B0000203F
:1009E000004002400000000000004E4000000000F7
:1009F00000004F40000000000000000063000020E5
:100A000048E8010070B5304C6088401C80B26080BE
:100A10000025B0F57A7F0AD3658021782B4801291B
:100A200033D01022114600F05CFC012020702848D1
:100A3000018811B10188491E01802648016811B161
:100A40000168491E01602448016811B10168491E0E
:100A500001602248016811B10168491E0160204807
:100A6000018811B10188491E01801E48017811B129
:100A70000178491E01701C4C217811B12178491E62
:100A800021700178012906D009E00022102100F030
:100A900028FC2570CBE7154A0221117005702078DB
:100AA000012805D100224021114800F01AFC2570D0
:100AB00070BD10B54CF24F3000F0C6FD00F0BDFD2A
:100AC000BDE8104000F0B2BD5000002000500240D0
:100AD0003400002048000020380000203C000020A6
:100AE0004C00002055000020540000205800002039
:100AF0000060004070B5674800F084FD664C4021FE
:100B0000204600F0D2FB654800F07CFD30212046F5
:100B100000F0D9FB624800F087FB624800F084FBDC
:100B200000F036FC604D014666234FF4964228469D
:100B300000F0A8FD4C2000F0D7FB7021284600F003
:100B4000DDFD08220121284600F0D3FD574864212D
:100B50008170022101712046BDE8704000224021D1
:100B600000F0BFBB2DE9F0474F4F0121384600F0A0
:100B7000C9FD80460146384600F0BEFD4B4E0024BC
:100B80000F364A4D4FF03209B8F1200F4AD1EE1D11
:100B90000EE0A879315C384600F067FD641C687986
:100BA000E4B2401E6871A879401CA871082C01D2DB
:100BB000012100E00021687900B101200140A879FD
:100BC000102801D3012000E000200142E1D185F886
:100BD0000090BDE8F08785F80190384600F039FDB7
:100BE000C1B22879F0B101281CD0022802D0032814
:100BF00018D10CE0EC70E8783218401CE8701170E5
:100C00003078962801D034700CE0032009E0E878B1
:100C1000082805D2E8783218401CE870117001E00D
:100C200001202871384600F028FD0028D3D1D0E7F4
:100C300070B504461C4D03E02846641C00F00FFD0F
:100C400021780029F8D170BD70B5184C6071002072
:100C5000A07140221146104800F043FBE51D124EE2
:100C60000AE0A079295C304600F0FFFC6079401E64
:100C70006071A079401CA071A079102801D20121D7
:100C800000E00021607900B101200142E9D1322069
:100C9000207070BD020800F000600040041800F0F1
:100CA0000110020001140200000001405400002065
:100CB00002480349014A034B70470000280A0020FC
:100CC000280E0020280A002010B54D4C207818B9B5
:100CD0004FF0804000F020FD0120207010BD10B5C5
:100CE0004FF0704000F08EFC222000F0FDFA00F082
:100CF0004FFB01464FF08044204600F010FD204697
:100D000000F00FFD2046BDE8104000F000BD38B5F2
:100D10004CF2503000903B4800F0E4FB3A4800F0C1
:100D200071FC3948801C00F06DFC3748401D00F014
:100D300069FC3548001D00F065FC3348401E00F09A
:100D400061FC3148C01C00F05DFC314A2F4B136040
:100D5000101D016841F0010101602E48016821F079
:100D600001010160101F016841F0010101600021D3
:100D70001160294A1360101D036843F0800303606B
:100D80002648036823F080030360101F036843F0C4
:100D9000800303601160224C0F21204600F077FA97
:100DA0000A2301220F21204600F0A1F9FF214FF074
:100DB000402000F07AFA1021204600F076FA0E2149
:100DC000184800F072FA0B21174800F06EFA0098EC
:100DD000401E0090FCD1FFF773FBFFF78BFEFFF77F
:100DE00068FEFFF77CFFBDE8384000F0AFBAFFF7C0
:100DF0008EFF0025024CFFF778FD2570FBE7000011
:100E00006B0000208003C001010800F04B434F4CF1
:100E100020550240205402402075004020740040BC
:100E20000050024000400240007000407047704790
:100E30007047754600F028F8AE46050069465346EF
:100E400020F00700854618B020B5FFF731FFBDE858
:100E500020404FF000064FF000074FF000084FF021
:100E6000000B21F00701AC46ACE8C009ACE8C009B2
:100E7000ACE8C009ACE8C0098D4670470446AFF342
:100E800000802046FFF759FA00487047C809002043
:100E900001491820ABBEFEE7260002007047012280
:100EA00002FA01F1C16070478268012303FA01F17F
:100EB00022EA010181607047012202FA01F1C1605A
:100EC000826811438160704770B5164C2368DFF863
:100ED00058C003EA0C05154BA5F18056B6F5A026BF
:100EE0000AD0246804EA0C0CACF18054B4F5202438
:100EF00018BF002406D00CE0984218BF01F140044E
:100F000007D104E0984218BF01F13E0401D101F17C
:100F10001E041146204600F021FA2046BDE870402C
:100F200000F0E2B900E00F400000FF7000800340D5
:100F300032B1C0684FF0011202FA01F10840704767
:100F4000406801228A4042F48032104010F4803F11
:100F500008BF704740F470204FF4803202FA01F16C
:100F6000884370470A4601F00F0101236FF30F0217
:100F700003FA01F11143826A114381627047826B67
:100F800022F0030211438163704730B44469890041
:100F90004FF00F0C0CFA01FC02F00F0524EA0C04D0
:100FA0008D402C434461046A03F0030324EA0C0CD3
:100FB00003FA01F14CEA0101016202F00F018B1FFB
:100FC000032B84BF30BC7047C900C3694FF0300C9D
:100FD00030390CFA01FC02F0300223EA0C0302FA69
:100FE00001F11943C16130BC704700EB411000F1C1
:100FF0004001002003E08B6842F8043B401CCB68B2
:1010000013F4807F18BF70470828F4D37047026834
:10101000012303FA01F122EA01010160704702682D
:10102000012303FA01F111430160704710B400EB92
:101030004110910050F840CF0F228A4003F00F0476
:101040002CEA020C8C404CEA040CC0F800C0D0F82A
:1010500018C0C3F303242CEA020C8C404CEA040CA5
:10106000C0F818C0D0F804C0C3F303142CEA020C73
:101070008C404CEA040CC0F804C0D0F81CC0C3F388
:1010800003542CEA020C8C404CEA040CC0F81CC03F
:1010900013F4702F4FF001040DD0D0F814C0C3F337
:1010A00002432CEA02028B401A434261026904FAAD
:1010B00001F1114304E0026904FA01F122EA01019D
:1010C000016110BC7047D0F8003412F0010F14BF5A
:1010D0000B438B43C0F8003412F0020FD0F82024E9
:1010E00014BF114322EA0101C0F8201470472DE912
:1010F000F00301264FF0000C0325C2F3411706FA56
:101100000CF40C4211D0D0F8C48F4FEA4C0405FA0D
:1011100004F928EA0908C0F8C48FD0F8C48F07FA88
:1011200004F448EA0404C0F8C44F0CF1010C0CF0BC
:10113000FF0CBCF1080FE2D3D0F800C512F0010F8C
:1011400014BF4CEA010C2CEA010CC0F800C5D0F821
:1011500004C512F0020F14BF4CEA010C2CEA010C7A
:10116000C0F804C5D0F808C512F0040F14BF4CEA4B
:10117000010C2CEA010CC0F808C5D0F818C512F013
:10118000080F14BF4CEA010C2CEA010CC0F818C57A
:1011900012F0100FD0F83C2514BF0A438A43C0F860
:1011A0003C25D0F80C2513F0010F14BF0A438A43E5
:1011B000C0F80C25D0F8102513F0020F14BF0A4315
:1011C0008A43C0F81025D0F8142513F0040F14BF7B
:1011D0000A438A43C0F81425D0F81C2513F0080FE1
:1011E00014BF0A438A43C0F81C25D0F8442513F4E1
:1011F000007F14BF0A438A43C0F84425D0F8402535
:1012000013F4407F14BF0A438A43C0F84025D0F846
:101210002825002B0CBF114322EA0101C0F8281534
:10122000BDE8F003704700000E4AC0F30741D26EDC
:1012300001238B401A420C4A1ABF02EBC1014968D4
:1012400052F83110020AD1F82C354FF00F0C0CFA7D
:1012500002FC00F00F0023EA0C0390401843C1F891
:101260002C05704700E00F401C22000050F82100C0
:10127000704730B50C4605460022FFF724FF214693
:101280002846BDE8304000230122FFF730BF30B5CB
:101290000C4605460022FFF716FF21462846BDE80A
:1012A000304008230122FFF722BF30B50C46054627
:1012B00008230122FFF71BFF21462846BDE83040E6
:1012C0000122FFF700BF30B50C4605460222FFF7AA
:1012D000FAFE21462846BDE8304008230122FFF7E8
:1012E00006BF40F8212070471649042804BF08684B
:1012F00040F4803018D0052804BF086840F400305E
:1013000012D0062812D00F2815D0102838BF7047E9
:10131000103800F01F01012202FA01F142090A48C7
:1013200050F822000160704708607047086840F478
:101330008020086070474FF0E020016941F0020111
:101340000161704724ED00E06823000010B5FFF74D
:1013500006F8002818BF012010BD000030B40A4D67
:101360002A680A4B9A421CBFD5F800C0002207D059
:101370005CF8224043F82240521C9B2AF8D32B6091
:1013800043F8201030BC704708ED00E00004002056
:1013900070B44B4D2A6E296F11F0004F14BF01F04D
:1013A000700002F03000202808BF464818D005DC45
:1013B00088B1102808BF444812D009E0302808BF7F
:1013C00047F230500CD0702808BF4FF4004007D0CF
:1013D00070BC002070477C203C4B00EA121018586B
:1013E0004FF0FF3311F0004F02D011F4006F06D020
:1013F00001F0004C02F400645CEA040C36D1D5F82C
:1014000060C1D5F8644104F01F06C4F30424641CD1
:10141000761C16FB04F46400B0FBF4F0CCF3090472
:101420004443CCF3892C00FB0CF0D5F810C004EB3E
:10143000902042F480020CF4704CBCF5804F08BF41
:10144000234B13D009DCBCF5005F08BF214B0DD046
:10145000BCF5405F08BF204B08E0BCF5E04F08BF7B
:101460001E4B03D0BCF5104F08BF1D4B12F4800F6C
:1014700021D011F0004F19D011F0804F09D011F494
:10148000006F0CD001F0004C02F400625CEA020232
:1014900005D0C1F3C551491CB0FBF1F00BE0400091
:1014A000C1F38651491CB0FBF1F004E0C2F3C35113
:1014B000491CB0FBF1F0834238BF184670BC70473E
:1014C00000E00F4000093D000024F400C0230000AC
:1014D000005A620200B4C40480F0FA0240787D0130
:1014E000002D3101434B30B4196E1A6F21F4800185
:1014F00041F4006142F4006419661C6721EA0002AD
:1015000012F0010F14D060F0010211409A159A6593
:101510001966D3F850C0D2021CF4807F08D1521E45
:1015200004BF30BC7047D3F850C01CF4807FF6D0A5
:1015300021F4FE6100F4FE621143DFF8BCC024F028
:10154000700222F0004200EA0C0C4CEA020200F0A9
:10155000080C42EACC0219661A6700F4005C21F418
:10156000005122F400524CEA01014CEA02024FF011
:10157000400CC3F858C012F0004F08BF19661A6734
:1015800018BF196621F00101DFF870C021F0F86181
:1015900000EA0C0C4CEA010122F0FC5200F0FC5C69
:1015A0004CEA020210F0804F08BF22F0804209D0BE
:1015B000DFF84CC022F4800200EA0C0C41F48001F8
:1015C0004CEA020210F4006F08BF4FF400400AD149
:1015D000D3F868C11CF0010F01D1401EF8D121F4ED
:1015E000006122F4006219661A6730BC1020FEF711
:1015F000ABBE000000E00F40300000800100C007DB
:1016000000004040C0F307230749C0B2194401F06D
:101610007043C1F3130143EA411141EA800040F0F5
:10162000007001220260704700E60F404FF0E0209A
:10163000016941F00501016170474FF0E020016947
:1016400041F00201016170474FF0E021401E486106
:101650007047816911F0100FFBD1006870478269F3
:1016600012F0200FFBD101607047826912F0200F49
:1016700006BF01600120002070478069012121EA36
:1016800010107047D0F818C01CF0080FFAD1D0F82D
:101690002CC02CF0100CC0F82CC0D0F830C02CF0AE
:1016A000010C2CF4407CC0F830C0D0F830C0B1EB55
:1016B000021F34BF4CF0200C2CF0200CC0F830C0BE
:1016C00038BF5208C900B1FBF2F1491C49088A0928
:1016D000426201F03F018162C36200218161C16AFF
:1016E00041F01001C162016B40F20132114301630C
:1016F000704711434163704741647047826B1143E7
:1017000081637047002914BF006CC06B704781680B
:1017100041F00101816070470121C16070470160A3
:101720007047816841F002018160704710B591EA0D
:10173000030F48BF83F0004300F1BC83841A71EBB0
:10174000030C05D2121943EB0C03001B61EB0C01D7
:10175000DFF824E14FEA1154A4EB135C1EEA430FB7
:1017600018BF9EEA445F73D023EA0E03DCF1200E1B
:1017700021EA045143F4801332D322FA0CFE10EB19
:101780000E0023FA0CFE41EB0E01CCF1200E03FA01
:101790000EFE10EB0E0051F10001B1F5801FCCF1EF
:1017A000200E32D201EB045112FA0EF2BDE81040C5
:1017B00058BF7047401C38BF5FEA420218BF7047ED
:1017C000002814BF20F0010041F100014FEA41035D
:1017D00013F5001F38BF7047A1F1C04100F026BBD0
:1017E000012A43EB0302ACF1200CDCF11F0E32BFE7
:1017F0004FF0000E23FA0CF310EB030041EB045101
:10180000B4EB115FD0D0A1EB045101F58011490870
:101810005FEA300001EB04510ED350F1000038BFF5
:1018200012FA0EFE08D1BDE81040C9E7401C38BFCF
:101830005FEA4202CAD1C3E7BDE810404FEA410364
:1018400013F5001F38BF7047A1F1C04100F0EEBA98
:101850009EEA445F08D011EA5E0FBDE8104004BF65
:1018600001F0004100207047BDE8104070B500F065
:101870008FFA00BF64FBBE3E0000E0FF491058BF76
:10188000C1F140415B1058BFC3F140438B42EFF3BD
:10189000008070472DE9C04130B4DFF8A0C23CEAB7
:1018A000111418BF3CEA131400F0EC8081EA030520
:1018B0001CEA111444EAD57418BF1CEA131500F091
:1018C000C780A4EB05044FF0004545EAC12145EA75
:1018D000C32341EA505143EA525304F17F749942C1
:1018E00004F500344FEAC0204FEAC22208BF9042FC
:1018F00000F09C804FEA13650FF24016765D4FEAC8
:10190000134506FB05F7C7F1807706FB07F74FEA9B
:10191000D737A7FB03687642C8F58038A7FB06CE09
:1019200038BFA8F1010807FB08E64FF0000EA6FB40
:10193000028CE6FB03CEDCF1000CCEF1004E38BF8A
:10194000AEF1010EA6FB0C584FF000074FF000055A
:10195000E6FB0E87A1FB08C6A0FB07CE16EB0E0622
:1019600045F10005E1FB076515F1E04E7EBFA4F5EA
:1019700080345FEA46066D4116F1800745F10005A7
:101980004FEA17274FEA066647EA0567A6F1DE46E3
:10199000B6F1805F4FEA15251FD9384624F0010CB7
:1019A00005EBC471BCF1FE6F01EB0C1102D8F0BC69
:1019B000BDE8008124425CBF01F5801E9EEAC47F21
:1019C00002D4F0BCBDE80081244238D4F0BCA1F1BF
:1019D000C041BDE8004100F029BA4FEAD22242EAF4
:1019E00043524FEAD323A7FB02864FEAD02040EAB6
:1019F000415007FB03661EEA0E0F4FEAD12105FB9B
:101A0000026658BFA6EB0056B6EB00564FEA520EE0
:101A10004EEAC37E18EB0E0E56EB530EBDD518EBF7
:101A200002085E417F1C55F10005B6E74FF48015B2
:101A30004FF000074FF000064FF00008ADE7F0BC94
:101A40004FF0000001F1C04101F00041BDE800810C
:101A500011EA0C1F0CEA131500D00CE013EA0C1F5E
:101A600000F025804FF00000F0BC81EA030101F096
:101A70000041BDE80081F0BC81EA0301BDE80041FE
:101A800000F0D4B9F0BCBDE8004170B500F080F9B9
:101A9000097EFC3E00F007B881EA03014FF0000028
:101AA00001F00041704781EA030100F0BFB9F0BCCA
:101AB0004FF000002249BDE800417047FFFDFBF9EF
:101AC000F7F5F4F2F0EEEDEBE9E8E6E4E3E1E0DE71
:101AD000DDDBDAD8D7D5D4D3D1D0CFCDCCCBCAC8E3
:101AE000C7C6C5C4C2C1C0BFBEBDBCBBBAB9B8B70A
:101AF000B6B5B4B3B2B1B0AFAEADACABAAA9A8A8FD
:101B0000A7A6A5A4A3A3A2A1A09F9F9E9D9C9C9BCA
:101B10009A99999897979695959493939291919075
:101B20008F8F8E8E8D8C8C8B8B8A89898888878706
:101B30008685858484838382828181800000FF077B
:101B40000000F87F4FEA1153A3F58063D3F11E0321
:101B5000A8BFD3F1200C08DB4FF0004242EAC122BB
:101B600052EA505232FA03F0704709420BD4102B5C
:101B7000C4BF0020704703F5787CBCF1FF3F05D05F
:101B80004FF0FF3070474FF00000704770B500F025
:101B9000FFF800BF4992248000207047F0E7B0FAB8
:101BA00080F310FA03F10AD0C3F11D0303F580633B
:101BB0004FEA41504FEA035202EBD12170474FF0F8
:101BC0000000704751EA030C17D41CF5801F58BF62
:101BD000BCF5801F00F10680994218BF704708BF0E
:101BE0009042704707D711F5801F58BF13F5801F2B
:101BF00019D499427047894270471CF5801F08D557
:101C0000BCF5801FF7D58B4218BF704708BF8242D2
:101C100070474FF4001C1CEB410F38BF1CEB430F07
:101C200001D28B42704770B500F0B2F8922449009F
:101C30004FF000514FF08053FFF720BEDFF848C14E
:101C400070B51CEA111E1EBF1CEA13159EEA0C0F8C
:101C500095EA0C0F00F06F8081EA030423EA4C132D
:101C60004EEAD47E21EA4C1141F4801143F48013F2
:101C7000AE44A1FB024CA0FB0365AEF17F7E36199A
:101C800055EB0C05A1FB034C4CF10003A0FB021C1F
:101C900016EB0C06654153F10003094218BF46F0EC
:101CA000010613F4007F0BD14FEA03314FEA0530F0
:101CB000340341EA155140EA16506FF003020AE07E
:101CC0004FEAC3214FEAC520F40241EA555140EAE8
:101CD00056506FF0020202EB2E4201EB025585EAEC
:101CE000CE710AD05FEA440C18BF24F0004450F1D2
:101CF000000041F1000120EAD47040F2FE7C624510
:101D000000D270BDA84214BF4FF080444FF0404451
:101D1000002E08BF0024BEF1806FA8BFA1F1C04112
:101D2000BDE8704080F282804FF0000001F1C041B8
:101D300001F0004170479EEA0C0F0CEA131518BF22
:101D400095EA0C0F06D04FF0000081EA030E0EF06A
:101D5000004170BD00F01CF88900013E00F007B89A
:101D600000F009B84FEA430C5FEA5C5C08D081EAF6
:101D7000030100F05BB84FEA410C5FEA5C5CF6D10E
:101D80004FF00000014970470000FF070000F87F96
:101D90000EF1020E2EF0030E5EF8046B364205D4EF
:101DA000012A43EB030515F5001F12D8012841EB6A
:101DB000010C1CF5001F0CD80ED14FEAD17C15F593
:101DC000001F0CEB4C0C0CF1020C08BF4CEBD37C4D
:101DD00004E04FF0080C01E04FEAD37C0CEB4C051B
:101DE00026FA05F606F00706B6F1040C06D20EEB4D
:101DF000860CBDE870404CF0010C6047DFE80CF049
:101E0000090B02024FF000414FF00000A1F5002144
:101E100070BD19461046012851EB010418BFD4F5D6
:101E2000001484BF002001F0004170BD0808A0F537
:101E300000114FEA3101704753EA010C17D41CF529
:101E4000801F58BFBCF5801F00F106808B4218BF71
:101E5000704708BF8242704707D713F5801F58BFED
:101E600011F5801F19D48B4270479B4270471CF5B7
:101E7000801F08D5BCF5801FF7D5994218BF704761
:101E800008BF904270474FF4001C1CEB430F38BF53
:101E90001CEB410F01D2994270470FB40CBC03BC3C
:101EA000FFF7C1BE10B591EA030F48BF83F00043AE
:101EB0003FF544AC841A71EB030C07D212198CF075
:101EC000004C43EB0C03001B61EB0C01DFF8A4E1B9
:101ED0004FEA1154A4EB135C1EEA430F18BF9EEAAD
:101EE000445F00F0B08023EA6E03524221EA0451BD
:101EF000C3EB6E0338BF5B1EDCF1200E25D322FA44
:101F00000CFE10EB0E0043FA0CFE41EB0E01CCF17F
:101F1000200E03FA0EFE10EB0E0051F10001CCF181
:101F2000200E29D412FA0EF201EB0451BDE8104044
:101F300058BF7047401C1CBFB2F1004F70470028CB
:101F40000CBF491C20F00100704712EB020E43EB5E
:101F5000030218BF4FF0010E4EEA4202ACF1200C12
:101F6000DCF11E0E54D943FA0CFE10EB0E0051F1B9
:101F7000FF31CCF11E0ED5D50EF1010E12FA0EFE78
:101F8000404141EB010101EB445C5FEA5C5C10D92C
:101F900010EBDE7001EB045138BFBEF1004FBDE81D
:101FA000104018BF704700280CBF491C20F00100EA
:101FB000704730D24FEAD42C11F5001124F400649C
:101FC0001BD0B1FA81F20B3AA41AA41ED2F120035D
:101FD000914030FA03F31943904001EBCC71002C8F
:101FE00001EB0451BDE81040A8BF704701F1C041AA
:101FF0004FF0000001F000417047B0FA80F310FA92
:1020000003F100D110BDE41A173C4805C90AE4E702
:1020100001EB045110BD491001EB0451BDE8104023
:102020004FEA300002E04FF0000170474A0008BF5D
:102030000042F8D0B2F5001F28BF704701F0004100
:102040004FF0000070479EEA445F07D011EA5E0F30
:10205000BDE8104004BF002100207047BDE81040DB
:1020600070B5FFF795FE00BF40DFF63E83F00041FC
:10207000104670470000E0FF4FF04070E1EE100A9C
:102080007047000000400040100000000080054044
:1020900010000000005000401100000000900540BA
:1020A00011000000006000401200000000A0054088
:1020B00012000000007000401300000000B0054056
:1020C00013000000004002401400000000C0054062
:1020D00014000000005002402E00000000D0054017
:1020E0002E000000006002402F00000000E00540CC
:1020F0002F000000007002403000000000F005409A
:102100003000000000D00340460000000000064000
:102110004600000000100640470000000020064076
:1021200048000000003006407F00000000400640EC
:10213000800000000050064084000000006006405F
:102140008C000000004000401000000000800540AE
:1021500010000000005000401100000000900540F9
:1021600011000000006000401200000000A00540C7
:1021700012000000007000401300000000B0054095
:1021800013000000004002401400000000C00540A1
:1021900014000000005002402E00000000D0054056
:1021A0002E000000006002402F00000000E005400B
:1021B0002F000000007002403000000000F00540D9
:1021C0003000000000D00340430000000000064043
:1021D00043000000001006404400000000200640BC
:1021E0004500000000300640580000000040064056
:1021F00059000000005006405C00000000600640EE
:1022000064000000007006406C0000000080064082
:102210006D000000009006407F000000004000407C
:1022200000800540005000400090054000600040E4
:1022300000A005400070004000B005400040024092
:1022400000C005400050024000D005400060024040
:1022500000E005400070024000F0054000D003405F
:102260000000064000100640001006400020064016
:102270000020064000300640003006400040064086
:1022800000400640005006400050064000600640F6
:102290000060064000700640007006400080064066
:1022A00000800640009006400090064000070000B5
:1022B000000600000005000000040000000300000C
:1022C000000200000001000000000000000000000B
:1022D00018ED00E01CED00E020ED00E000E400E07F
:1022E00004E400E008E400E00CE400E010E400E0B6
:1022F00014E400E018E400E01CE400E020E400E066
:1023000024E400E028E400E02CE400E030E400E015
:1023100034E400E038E400E03CE400E040E400E0C5
:1023200044E400E048E400E04CE400E050E400E075
:1023300054E400E058E400E05CE400E060E400E025
:1023400064E400E068E400E06CE400E070E400E0D5
:1023500074E400E078E400E07CE400E080E400E085
:1023600084E400E088E400E000E100E004E100E053
:1023700008E100E00CE100E010E100E080E100E0B5
:1023800084E100E088E100E08CE100E090E100E021
:1023900000E200E004E200E008E200E00CE200E01D
:1023A00010E200E080E200E084E200E088E200E089
:1023B0008CE200E090E200E000688909001C4E0E0B
:1023C00040420F0000201C0080841E000080250079
:1023D000999E36000040380000093D0000803E0014
:1023E00000004B00404B4C0000204E00808D5B00F5
:1023F00000C05D000080700000127A0000007D00C7
:1024000080969800001BB7000080BB00C0E8CE009B
:10241000647ADA000024F4000000FA0080A81201B7
:10242000002D310100366E0140787D014000000032
:1024300000000000000100003E0008000000000055
:1024400000010000A00000000200000000010000E8
:102450003454010000000000000100002B70060051
:102460000000000000010000280000000000000043
:102470000001000027000100000000000001000032
:1024800020000000000000000001000050000000DB
:1024900002000000000100001AAC00000000000073
:1024A0000001000017940900000000000001000076
:1024B0001698050000000000000100001400000054
:1024C0000000000000010000138008000000000070
:1024D00000010000A0000000080000000001000052
:1024E00010000000000000000001000028000000B3
:1024F0000200000000010000400000000400000095
:102500000001000060000000000000000001000069
:102510005D000C0000000000000100005000000001
:1025200000000000000100004E000200000000005A
:102530000001000041AC01000000000000010000AB
:102540003C00000000000000000100003A8009008B
:10255000000000000001000030000000000000004A
:102560000001000028000000000000000001000041
:1025700027000100000000000001000023600600A9
:1025800000000000000100002160080000000000C1
:10259000000100001E00000000000000000100001B
:1025A0001DC00400000000000001000050000000F9
:1025B0000200000000010000180000000000000000
:1025C00000010000140000000000000000010000F5
:1025D0006000000004000000000100000024F4007E
:1025E00030003000005A620291009100008793038E
:1025F000D200D20000B4C4041301130100E1F505B8
:1026000054015401000E2707950195012C26000066
:10261000000000206C060000C402000048260000F4
:102620006C060020BC07000000030000011E0CFF28
:102630003F065B4F666D7D077F6F8001FF01FF01E5
:08264000FF01FF01FF01510041
:04000005000002896C
:00000001FF
